:10008700758921758BFD758DFD758850759850E4C0
:03009700F58722C8
:0B00C700EF1FAC0670011E4C70F6220B
:100003007590FFE590F460607F647E001200C7E5A1
:1000130090F46054AF90EF2481603E24C060352497
:10002300E0602C24F0602324F8601A24FC6011247F
:10003300FE6008147026750B018021750B02801C6D
:10004300750B038017750B048012750B05800D75F6
:100053000B068008750B078003750B08E590F4F514
:0C00630009E590F4600580F9E4F50B223B
:0E00AD00E50B4430F50AF5993099FDC2992211
:10009A003098FDC2988509A07F307E751200C7E4AA
:0300AA00F5A0229C
:10006F00120087E4F5A0120003E50B60F91200AD52
:08007F0012009AE4F50B80EE7B
:030000000200BB40
:0C00BB00787FE4F6D8FD75810B02006F21
:00000001FF
