:10029A000000FC9494949495B6D49494949C800011
:1002AA0040300F8040300F04044484443C00000076
:1002BA0000F8010600F092929292F20202FE000009
:1002CA0000FF00000007040404040740807F0000C8
:1002DA000000FC44444444C5FE44444444440400ED
:1002EA0080601F4020180601FF0102040830100038
:1002FA004040405FD15151515151515F40404000FF
:10030A0000000002070202224282423E0000000070
:10031A0000E010080810E000000F102020100F0065
:10032A00001010F8000000000020203F20200000EC
:10033A000070080808887000003028242221300044
:10034A0000300888884830000018202020110E004C
:10035A000000C02010F8000000070424243F2400F5
:10036A0000F80888880808000019212020110E00CA
:10037A0000E0108888180000000F112020110E00DC
:10038A0000380808C83808000000003F00000000D4
:10039A000070880808887000001C222121221C0095
:1003AA0000E010080810E0000000312222110F00BE
:10000E0006180000000000000612000000000000AC
:10072600ED44B8F580D2A07F027E0012073AC2A03F
:040736007F027E00C0
:0B073A00EF1FAC0670011E4C70F62291
:10044600AA07EAC394405035C2A4C2A3C2A1C2A25D
:10045600D2A3C2A4120726C2A1C2A2D2A3C2A4EAF0
:100466004440120729D2A2C2A1D2A3C2A48B80D231
:10047600A0120736C2A07F027E0002073AC2A4C2BB
:10048600A374C02AFAC2A1C2A2C2A3D2A41207268A
:10049600C2A1C2A2C2A3D2A4EA4440120729D2A290
:1004A600C2A1C2A3D2A48B8012072BD2A4D2A322AC
:1004B600C2A1C2A2C2A0D2A4D2A3C2A3D2A4C2A1E4
:1004C600C2A275803F12072BC2A3D2A4C2A1C2A2A8
:1004D6007580C012072BC2A4C2A3D2A3C2A4C2A114
:1004E600C2A275803F12072BD2A3C2A4C2A1C2A288
:1004F6007580C012072BC2A4C2A3E4F51FE4F9AFAE
:1005060001E4FBAD1F12044609B980F3051FE51F80
:05051600C3940840E859
:01051B0022BD
:08068D007BFF7A0279BAE4FD5B
:0A0695008F1F8D208B218A228923FC
:10069F00E4F524AB21AA22A92385248275830012B5
:1006AF0006D8FBE524C39410E51F50072524FFADA2
:1006BF00208009252424F0FFE52004FD12044605BF
:0806CF0024E524C3942040CB74
:0106D7002200
:1005DD0075F00A84E5F075F010A4241AF97403354A
:0605ED00F0FA7BFF7D0225
:0A05F3008F1F8D208B218A2289239F
:1005FD00E4F524AB21AA22A9238524827583001258
:10060D0006D8FBE524C39408E51F50072524FFAD4C
:10061D00208009252424F8FFE52004FD1204460559
:08062D0024E524C3941040CB26
:0106350022A2
:100636007BFF7A02799AE4FDFF1206957F10120677
:100646008D7BFF7A0279DAE4FD7F201206957BFF27
:100656007A0279FAE4FD7F301206957BFF7A0279F9
:100666009AE4FD7F401206957F5012068D7BFF7A35
:100676000279DAE4FD7F601206957BFF7A0279FA49
:07068600E4FD7F7002069500
:10002600E51875F00A8475F010A4241AF9740335DE
:10003600F0FA7BFF7D027F081205F3E5187F1012A8
:1000460005DDE51275F00A8475F010A4241AF9741A
:100056000335F0FA7BFF7D027F281205F3E5127F58
:10006600301205DDE51975F00A8475F010A4241A1E
:10007600F9740335F0FA7BFF7D027F481205F3E53C
:100086001975F00A84E5F075F010A4241AF97403C2
:1000960035F0FA7BFF7D027F501205F3E51375F00C
:1000A6000A8475F010A4241AF9740335F0FA7BFF5C
:1000B6007D027F681205F3E51375F00A84E5F07595
:1000C600F010A4241AF9740335F0FA7BFF7D027F41
:1000D600701205F3E51A75F00A8475F010A4241A57
:1000E600F9740335F0FA7BFF7D047F081205F3E50A
:1000F6001A75F00A84E5F075F010A4241AF9740351
:1001060035F0FA7BFF7D047F101205F3E51475F0D8
:100116000A8475F010A4241AF9740335F0FA7BFFEB
:100126007D047F281205F3E51475F00A84E5F07561
:10013600F010A4241AF9740335F0FA7BFF7D047FCE
:10014600301205F3E51B75F00A8475F010A4241A25
:10015600F9740335F0FA7BFF7D047F481205F3E559
:100166001B75F00A84E5F075F010A4241AF97403DF
:1001760035F0FA7BFF7D047F501205F3E51575F027
:100186000A8475F010A4241AF9740335F0FA7BFF7B
:100196007D047F681205F3E51575F00A84E5F075B0
:1001A600F010A4241AF9740335F0FA7BFF7D047F5E
:1001B600701205F3E51C75F00A8475F010A4241A74
:1001C600F9740335F0FA7BFF7D067F081205F3E527
:1001D6001C75F00A84E5F075F010A4241AF974036E
:1001E60035F0FA7BFF7D067F101205F3E51675F0F4
:1001F6000A8475F010A4241AF9740335F0FA7BFF0B
:100206007D067F281205F3E51675F00A84E5F0757C
:10021600F010A4241AF9740335F0FA7BFF7D067FEB
:10022600301205F3E51D75F00A8475F010A4241A42
:10023600F9740335F0FA7BFF7D067F481205F3E576
:100246001D75F00A84E5F075F010A4241AF97403FC
:1002560035F0FA7BFF7D067F501205F3E51775F042
:100266000A8475F010A4241AF9740335F0FA7BFF9A
:100276007D067F681205F3E51775F00A84E5F075CB
:10028600F010A4241AF9740335F0FA7BFF7D067F7B
:04029600700205F3FA
:10070500758921E4F58775985075B810758DFD7557
:100715008BFD758CDF758A7375884075A892C28CC0
:0107250022B1
:09079F007599553099FDC29922AB
:10051C00E51054F0C4540FFFE510540FFEE51870AD
:10052C00048F188026E51970048F19801EE51A7047
:10053C00048F1A8016E51B70048F1B800EE51C704F
:10054C00048F1C8006E51D70028F1DE51270038E52
:10055C001222E51370038E1322E51470038E1422FD
:10056C00E51570038E1522E51670038E1622E5171D
:04057C0070028E1764
:010580002258
:030023000207646D
:10076400C0E0C0D075D0083098FDC29885991012A9
:0E077400051C12079FD28CC2B7D0D0D0E03245
:03000B00020745A4
:10074500C0E0C0D0758CDF758A730511E511D394AF
:0F075500644007B2B7751100051ED0D0D0E03256
:100581007590FFE590F460537F0A7E0012073AE50B
:1005910090F46047AF90EF2421603624F0602B2463
:1005A100F8602024FC601524FE600A147028E4F52C
:1005B10018F5128021E4F519F513801AE4F51AF5FE
:1005C100148013E4F51BF515800CE4F51CF5168079
:0B05D10005E4F51DF517E590B4FFFBF5
:0105DC0022FC
:100782001207051204B6120581120636120026E57A
:0D0792001ED3940440F0E4F51EC28C80E9F3
:030000000203BA3E
:0C03BA00787FE4F6D8FD75812402040170
:1006D800BB010CE58229F582E5833AF583E02250D7
:1006E80006E92582F8E622BBFE06E92582F8E22221
:0D06F800E58229F582E5833AF583E493223B
:1003C600020782E493A3F8E493A34003F68001F2C4
:1003D60008DFF48029E493A3F85407240CC8C33338
:1003E600C4540F4420C8834004F456800146F6DF07
:1003F600E4800B010204081020408090000EE47E89
:10040600019360BCA3FF543F30E509541FFEE493FB
:10041600A360010ECF54C025E060A840B8E493A3C2
:10042600FAE493A3F8E493A3C8C582C8CAC583CAED
:10043600F0A3C8C582C8CAC583CADFE9DEE780BEA5
:01001E0000E1
:00000001FF
